:100000000C9462000C948A000C948A000C948A0070
:100010000C948A000C948A000C948A000C948A0038
:100020000C948A000C948A000C948A000C941E0292
:100030000C948A000C948A000C948A000C948A0018
:100040000C94D4010C948A000C948A000C948A00BD
:100050000C948A000C948A000C948A000C948A00F8
:100060000C948A000C948A000000000024002700F1
:100070002A0000000000250028002B0000000000DE
:1000800023002600290004040404040404040202DA
:100090000202020203030303030301020408102007
:1000A0004080010204081020010204081020000012
:1000B0000008000201000003040700000000000027
:1000C0000000710411241FBECFEFD8E0DEBFCDBF0A
:1000D00011E0A0E0B1E0E8E6FCE002C005900D927E
:1000E000A030B107D9F721E0A0E0B1E001C01D9236
:1000F000A233B207E1F710E0C2E6D0E004C02197D6
:10010000FE010E942C06C136D107C9F70E941F03C9
:100110000C9432060C9400008F929F92AF92BF9283
:10012000FF920F931F93CF93DF93F0902F012BE05B
:100130002F1508F44CC02091310108E512E0021B94
:10014000110927FD1395000F111F000F111F20919A
:100150003001C8E8D0E0C21BD10927FDD395CC0FF0
:10016000DD1FCC0FDD1F4E010D2E000CAA08BB08B1
:100170009801012E000C440B550B281939094A0926
:100180005B09DC010E94B60424EB30E040E050E063
:100190000E948C04820E931EA41EB51E8C169D0612
:1001A0002CF0E801801691060CF4E4012297CC0FA4
:1001B000DD1F2FB7F8948F2D90E0FC01EE0FFF1F8D
:1001C000E80FF91FE55FFE4FD283C1832FBFDF9198
:1001D000CF911F910F91FF90BF90AF909F908F9004
:1001E0000895833081F028F4813099F08230A9F0AD
:1001F00008958730A9F08830C9F08430B1F4809137
:1002000080008F7D03C0809180008F778093800075
:10021000089584B58F7784BD089584B58F7DFBCF15
:100220008091B0008F778093B00008958091B000E6
:100230008F7DF9CF1F93CF93DF93282F30E0F90103
:10024000E255FF4F8491F901E656FF4FD491F90131
:10025000EA57FF4FC491CC23A9F0162F81110E94B9
:10026000F100EC2FF0E0EE0FFF1FEE58FF4FA591CD
:10027000B4918FB7F894EC91111108C0D095DE239A
:10028000DC938FBFDF91CF911F910895DE2BF8CFC4
:10029000CF93DF9390E0FC01E656FF4F24918A57FD
:1002A0009F4FFC0184918823D1F090E0880F991F23
:1002B000FC01E859FF4FA591B491FC01EE58FF4FA6
:1002C000C591D49161110EC09FB7F8948C91E22F23
:1002D000E0958E238C932881E223E8839FBFDF91F2
:1002E000CF9108958FB7F894EC91E22BEC938FBFE8
:1002F000F6CF3FB7F8948091070190910801A09143
:100300000901B0910A0126B5A89B05C02F3F19F03D
:100310000196A11DB11D3FBFBA2FA92F982F882785
:10032000BC01CD01620F711D811D911D42E0660F60
:10033000771F881F991F4A95D1F708958F929F9232
:10034000AF92BF92CF92DF92EF92FF920E9479011B
:100350004B015C0184EFC82EDD24D394E12CF12CF9
:100360000E947901681979098A099B09683E7340DE
:1003700081059105A8F321E0C21AD108E108F1082E
:1003800088EE880E83E0981EA11CB11CC114D10414
:10039000E104F10429F7FF90EF90DF90CF90BF9038
:1003A000AF909F908F9008951F920F920FB60F926B
:1003B00011242F933F938F939F93AF93BF9380917B
:1003C000030190910401A0910501B09106013091C3
:1003D000020123E0230F2D3758F50196A11DB11D11
:1003E000209302018093030190930401A0930501DF
:1003F000B09306018091070190910801A091090135
:10040000B0910A010196A11DB11D8093070190933F
:100410000801A0930901B0930A01BF91AF919F9188
:100420008F913F912F910F900FBE0F901F901895B5
:1004300026E8230F0296A11DB11DD2CF1F920F9265
:100440000FB60F9211242F933F934F935F936F93A7
:100450007F938F939F93AF93BF93CF93DF93EF934C
:10046000FF9380910101C0910001D0E087FF24C07B
:100470001092850010928400809101018F5F80931B
:10048000010180910101082E000C990B8C179D072A
:1004900024F4809101018C30C4F18091840090910A
:1004A0008500049680349C4908F47AC080918400C9
:1004B00090918500049676C080910101082E000C71
:1004C000990B8C179D07C4F6E09101018E2FEE0F5A
:1004D000990BFC01EE0FFF1FE80FF91FE55FFE4FC0
:1004E000808186FFC9CFE09101018E2FEE0F990B1D
:1004F000FC01EE0FFF1FE80FF91FE55FFE4F808143
:1005000060E08F730E941A01B7CF20918400309170
:100510008500E09101018E2FEE0F990BFC01EE0F8B
:10052000FF1FE80FF91FE55FFE4F81819281820F67
:10053000931F9093890080938800E09101018E2F92
:10054000EE0F990BFC01EE0FFF1FE80FF91FE55F9F
:10055000FE4F808186FF11C0E09101018E2FEE0FCA
:10056000990BFC01EE0FFF1FE80FF91FE55FFE4F2F
:10057000808161E08F730E941A01FF91EF91DF91FA
:10058000CF91BF91AF919F918F917F916F915F912B
:100590004F913F912F910F900FBE0F901F90189584
:1005A00080E49CE990938900809388008FEF80938A
:1005B0000101E3CFCF92DF92EF92FF920F931F934F
:1005C000E82FF92F05C0015011092109310961F106
:1005D000908196239417B9F305C0015011092109A0
:1005E000310911F1908196239413F7CFC12CD12CAE
:1005F000E12CF12C0AC08FEFC81AD80AE80AF80AD1
:100600000C151D052E053F0579F080818623841782
:1006100091F36C2D7D2D8E2D9F2D1F910F91FF90AD
:10062000EF90DF90CF90089560E070E080E090E080
:100630001F910F91FF90EF90DF90CF9008957894E5
:1006400084B5826084BD84B5816084BD85B58260D7
:1006500085BD85B5816085BD80916E008160809388
:100660006E001092810080918100826080938100F1
:100670008091810081608093810080918000816001
:10068000809380008091B10084608093B10080915C
:10069000B00081608093B00080917A008460809384
:1006A0007A0080917A00826080937A0080917A004B
:1006B000816080937A0080917A00806880937A00CC
:1006C0001092C10061E08BE00E94480160E08AE086
:1006D0000E94480160E088E00E94480161E08CE0EF
:1006E0000E94480161E08DE00E94480180912F0145
:1006F0008C3008F051C061E089E00E94480180918F
:100700002F01282F30E0F901EE0FFF1FE20FF31F3A
:10071000E55FFE4F9081907C99609083109230014C
:10072000109231012CE0622F0E942006829FB001BE
:10073000112430E020E0AB01420F531FFA01EE0F0D
:10074000FF1FE40FF51FE55FFE4F908196FD16C079
:100750002F5F3F4F2C30310571F781110FC0109280
:10076000800082E0809381001092850010928400C6
:10077000B19A80916F00826080936F00E0912F01A9
:100780008E2F90E0FC01EE0FFF1FE80FF91FE55FD1
:10079000FE4F80818064808360E08CE00E941A01BB
:1007A00061E08DE00E941A0190E080E00E948C00E0
:1007B0000E949E01C3E0D0E023E2E22EF12C34EA55
:1007C000232E30E0332E40E9442E40E0542E56EBE9
:1007D000652E50E0752E62EAC62E60E0D62E7EE8C9
:1007E000A72E70E0B72EE0E08E2EE0E09E2E60E0B7
:1007F0008BE00E941A01CE010197F1F761E08BE0D6
:100800000E941A01C7010197F1F760E08BE00E9496
:100810001A01F1016491F2018491E82FF0E0EE0FEA
:10082000FF1FE458FF4F8591949100E412E42FE0FC
:1008300030E0462F0E94DA026115710581059105AD
:1008400029F06F5F7F4F8F4F9F4F9F700E9427054A
:1008500026E933E44BE05DE30E948B0520E030E0C5
:1008600040E05FE30E948B050E94EF04653671054E
:100870005CF5F3018491F6011491F50104910023D4
:10088000C1F381110E94F100E02FF0E0EE0FFF1F95
:10089000E458FF4FA591B4918C91182351F38AE548
:1008A00090E00E948C0061E08CE00E941A0160E000
:1008B0008DE00E941A010E949E018114910409F4A6
:1008C00096CF0E94000093CF60E08CE00E941A0156
:1008D00061E08DE00E941A0190E080E00E948C00AF
:1008E000EACF809100018C3098F491E0980F9093BA
:1008F000000180932F0190E0FC01EE0FFF1FE80F35
:10090000F91FE55FFE4F88EB9BE09283818308959A
:100910008FEF80932F010895052E97FB1EF400940E
:100920000E94A30457FD07D00E94BE0407FC03D019
:100930004EF40C94A30450954095309521953F4F6B
:100940004F4F5F4F089590958095709561957F4FBB
:100950008F4F9F4F08950E94E004A59F900DB49F74
:10096000900DA49F800D911D11240895B7FF0C9444
:10097000AB040E94AB04821B930B0895A1E21A2ED4
:10098000AA1BBB1BFD010DC0AA1FBB1FEE1FFF1F33
:10099000A217B307E407F50720F0A21BB30BE40B83
:1009A000F50B661F771F881F991F1A9469F76095CA
:1009B0007095809590959B01AC01BD01CF01089584
:1009C000A29FB001B39FC001A39F700D811D112490
:1009D000911DB29F700D811D1124911D08950E94DB
:1009E000F6046894B1110C94850508950E946A0577
:1009F00088F09F5798F0B92F9927B751B0F0E1F0E0
:100A0000660F771F881F991F1AF0BA95C9F714C08F
:100A1000B13091F00E948405B1E008950C948405F2
:100A2000672F782F8827B85F39F0B93FCCF38695C8
:100A300077956795B395D9F73EF490958095709525
:100A400061957F4F8F4F9F4F0895E89409C097FBA2
:100A50003EF490958095709561957F4F8F4F9F4F95
:100A60009923A9F0F92F96E9BB279395F6958795D9
:100A700077956795B795F111F8CFFAF4BB0F11F49C
:100A800060FF1BC06F5F7F4F8F4F9F4F16C0882343
:100A900011F096E911C0772321F09EE8872F762F79
:100AA00005C0662371F096E8862F70E060E02AF0BA
:100AB0009A95660F771F881FDAF7880F96958795A6
:100AC00097F9089557FD9058440F551F59F05F3F0F
:100AD00071F04795880F97FB991F61F09F3F79F060
:100AE00087950895121613061406551FF2CF4695E2
:100AF000F1DF08C0161617061806991FF1CF869564
:100B00007105610508940895E894BB276627772747
:100B1000CB0197F908950E949E050C940F060E9440
:100B2000010638F00E94080620F0952311F00C947D
:100B3000F8050C94FE0511240C9485050E946205AD
:100B400070F3959FC1F3950F50E0551F629FF00120
:100B5000729FBB27F00DB11D639FAA27F00DB11D39
:100B6000AA1F649F6627B00DA11D661F829F2227C2
:100B7000B00DA11D621F739FB00DA11D621F839F49
:100B8000A00D611D221F749F3327A00D611D231F1F
:100B9000849F600D211D822F762F6A2F11249F576D
:100BA00050409AF0F1F088234AF0EE0FFF1FBB1F70
:100BB000661F771F881F91505040A9F79E3F51052F
:100BC00080F00C94F8050C9485055F3FE4F3983EA3
:100BD000D4F3869577956795B795F795E7959F5FD9
:100BE000C1F7FE2B880F911D9695879597F908956B
:100BF00097F99F6780E870E060E008959FEF80ECD0
:100C0000089500240A941616170618060906089572
:100C100000240A9412161306140605060895092ED8
:100C20000394000C11F4882352F0BB0F40F4BF2B47
:100C300011F460FF04C06F5F7F4F8F4F9F4F089587
:100C4000991B79E004C0991F961708F0961B881F1E
:100C50007A95C9F780950895EE0FFF1F0590F491DE
:080C6000E02D0994F894FFCF88
:00000001FF
